{
  "contractName": "DR",
  "abi": [
    {
      "inputs": [],
      "payable": false,
      "stateMutability": "nonpayable",
      "type": "constructor"
    },
    {
      "anonymous": false,
      "inputs": [
        {
          "indexed": false,
          "name": "_address",
          "type": "address"
        },
        {
          "indexed": false,
          "name": "powerConsumption",
          "type": "int64[]"
        }
      ],
      "name": "powerC",
      "type": "event"
    },
    {
      "anonymous": false,
      "inputs": [
        {
          "indexed": false,
          "name": "_address",
          "type": "address"
        },
        {
          "indexed": false,
          "name": "excessP",
          "type": "int64"
        },
        {
          "indexed": false,
          "name": "_interval",
          "type": "uint16"
        }
      ],
      "name": "excess",
      "type": "event"
    },
    {
      "anonymous": false,
      "inputs": [
        {
          "indexed": false,
          "name": "_address",
          "type": "address"
        },
        {
          "indexed": false,
          "name": "excess_t_log",
          "type": "uint32[]"
        },
        {
          "indexed": false,
          "name": "excess_v_log",
          "type": "int64[]"
        },
        {
          "indexed": false,
          "name": "amount",
          "type": "int64"
        }
      ],
      "name": "billing",
      "type": "event"
    },
    {
      "constant": true,
      "inputs": [
        {
          "name": "_addr",
          "type": "address"
        }
      ],
      "name": "getConsumption",
      "outputs": [
        {
          "name": "",
          "type": "int64[]"
        }
      ],
      "payable": false,
      "stateMutability": "view",
      "type": "function"
    },
    {
      "constant": true,
      "inputs": [],
      "name": "getAuthorizedBuildings",
      "outputs": [
        {
          "name": "",
          "type": "address[]"
        }
      ],
      "payable": false,
      "stateMutability": "view",
      "type": "function"
    },
    {
      "constant": true,
      "inputs": [],
      "name": "getOwner",
      "outputs": [
        {
          "name": "",
          "type": "address"
        }
      ],
      "payable": false,
      "stateMutability": "view",
      "type": "function"
    },
    {
      "constant": true,
      "inputs": [],
      "name": "getAuthorizedCount",
      "outputs": [
        {
          "name": "",
          "type": "uint256"
        }
      ],
      "payable": false,
      "stateMutability": "view",
      "type": "function"
    },
    {
      "constant": true,
      "inputs": [],
      "name": "getThreshold",
      "outputs": [
        {
          "name": "",
          "type": "int64"
        }
      ],
      "payable": false,
      "stateMutability": "view",
      "type": "function"
    },
    {
      "constant": false,
      "inputs": [
        {
          "name": "_threshold",
          "type": "int64"
        }
      ],
      "name": "setThreshold",
      "outputs": [],
      "payable": false,
      "stateMutability": "nonpayable",
      "type": "function"
    },
    {
      "constant": false,
      "inputs": [
        {
          "name": "_authorizedBuildings",
          "type": "address[]"
        }
      ],
      "name": "setBuildings",
      "outputs": [],
      "payable": false,
      "stateMutability": "nonpayable",
      "type": "function"
    },
    {
      "constant": false,
      "inputs": [
        {
          "name": "_addr",
          "type": "address"
        },
        {
          "name": "power",
          "type": "int64[]"
        }
      ],
      "name": "setConsumption",
      "outputs": [],
      "payable": false,
      "stateMutability": "nonpayable",
      "type": "function"
    },
    {
      "constant": false,
      "inputs": [
        {
          "name": "_addr",
          "type": "address"
        },
        {
          "name": "_interval",
          "type": "uint16"
        },
        {
          "name": "_power",
          "type": "int64"
        }
      ],
      "name": "monitor",
      "outputs": [],
      "payable": false,
      "stateMutability": "nonpayable",
      "type": "function"
    },
    {
      "constant": false,
      "inputs": [
        {
          "name": "_addr",
          "type": "address"
        }
      ],
      "name": "compute_billing",
      "outputs": [],
      "payable": false,
      "stateMutability": "nonpayable",
      "type": "function"
    }
  ],
  "bytecode": "0x608060405234801561001057600080fd5b50336000806101000a81548173ffffffffffffffffffffffffffffffffffffffff021916908373ffffffffffffffffffffffffffffffffffffffff1602179055506060600260006101000a81548161ffff021916908361ffff160217905550620249f0600060146101000a81548167ffffffffffffffff021916908360070b67ffffffffffffffff160217905550611009806100ad6000396000f3006080604052600436106100a4576000357c0100000000000000000000000000000000000000000000000000000000900463ffffffff168063440d3a5e146100a957806358688c1c146100ec57806369dbe3ae1461018457806370ac281c146101af578063893d20e8146102155780638e0786721461026c578063a30dbfc5146102ca578063be38921314610350578063e5f96fe914610380578063e75235b8146103ec575b600080fd5b3480156100b557600080fd5b506100ea600480360381019080803573ffffffffffffffffffffffffffffffffffffffff16906020019092919050505061041d565b005b3480156100f857600080fd5b5061012d600480360381019080803573ffffffffffffffffffffffffffffffffffffffff1690602001909291905050506106d8565b6040518080602001828103825283818151815260200191508051906020019060200280838360005b83811015610170578082015181840152602081019050610155565b505050509050019250505060405180910390f35b34801561019057600080fd5b50610199610798565b6040518082815260200191505060405180910390f35b3480156101bb57600080fd5b50610213600480360381019080803590602001908201803590602001908080602002602001604051908101604052809392919081815260200183836020028082843782019150505050505091929192905050506107a5565b005b34801561022157600080fd5b5061022a61084f565b604051808273ffffffffffffffffffffffffffffffffffffffff1673ffffffffffffffffffffffffffffffffffffffff16815260200191505060405180910390f35b34801561027857600080fd5b506102c8600480360381019080803573ffffffffffffffffffffffffffffffffffffffff169060200190929190803561ffff169060200190929190803560070b9060200190929190505050610878565b005b3480156102d657600080fd5b5061034e600480360381019080803573ffffffffffffffffffffffffffffffffffffffff16906020019092919080359060200190820180359060200190808060200260200160405190810160405280939291908181526020018383602002808284378201915050505050509192919290505050610b63565b005b34801561035c57600080fd5b5061037e600480360381019080803560070b9060200190929190505050610cec565b005b34801561038c57600080fd5b50610395610d76565b6040518080602001828103825283818151815260200191508051906020019060200280838360005b838110156103d85780820151818401526020810190506103bd565b505050509050019250505060405180910390f35b3480156103f857600080fd5b50610401610e04565b604051808260070b60070b815260200191505060405180910390f35b60008060009150600090505b600660008473ffffffffffffffffffffffffffffffffffffffff1673ffffffffffffffffffffffffffffffffffffffff168152602001908152602001600020805490508110156104f357600660008473ffffffffffffffffffffffffffffffffffffffff1673ffffffffffffffffffffffffffffffffffffffff168152602001908152602001600020818154811015156104bf57fe5b90600052602060002090600491828204019190066008029054906101000a900460070b820191508080600101915050610429565b600a8260000360070b81151561050557fe5b0591507f2f892b74127900b7d0c7ce2c8305b2e93c2c6386a426122601b7ef034bec7c6083600560008673ffffffffffffffffffffffffffffffffffffffff1673ffffffffffffffffffffffffffffffffffffffff168152602001908152602001600020600660008773ffffffffffffffffffffffffffffffffffffffff1673ffffffffffffffffffffffffffffffffffffffff16815260200190815260200160002085604051808573ffffffffffffffffffffffffffffffffffffffff1673ffffffffffffffffffffffffffffffffffffffff16815260200180602001806020018460070b60070b8152602001838103835286818154815260200191508054801561065c57602002820191906000526020600020906000905b82829054906101000a900463ffffffff1663ffffffff168152602001906004019060208260030104928301926001038202915080841161061f5790505b505083810382528581815481526020019150805480156106c157602002820191906000526020600020906000905b82829054906101000a900460070b60070b8152602001906008019060208260070104928301926001038202915080841161068a5790505b5050965050505050505060405180910390a1505050565b6060600360008373ffffffffffffffffffffffffffffffffffffffff1673ffffffffffffffffffffffffffffffffffffffff16815260200190815260200160002060010180548060200260200160405190810160405280929190818152602001828054801561078c57602002820191906000526020600020906000905b82829054906101000a900460070b60070b815260200190600801906020826007010492830192600103820291508084116107555790505b50505050509050919050565b6000600180549050905090565b600081600190805190602001906107bd929190610e1a565b50600090505b815181101561084b5760016003600084848151811015156107e057fe5b9060200190602002015173ffffffffffffffffffffffffffffffffffffffff1673ffffffffffffffffffffffffffffffffffffffff16815260200190815260200160002060000160006101000a81548160ff02191690831515021790555080806001019150506107c3565b5050565b60008060009054906101000a900473ffffffffffffffffffffffffffffffffffffffff16905090565b600080600360008673ffffffffffffffffffffffffffffffffffffffff1673ffffffffffffffffffffffffffffffffffffffff1681526020019081526020016000206001018461ffff168154811015156108ce57fe5b90600052602060002090600491828204019190066008029054906101000a900460070b83039150600060149054906101000a900460070b60070b8260070b138061092f5750600060149054906101000a900460070b60000360070b8260070b125b15610b2f5760008260070b131561095957600060149054906101000a900460070b82039050610971565b600060149054906101000a900460070b820160000390505b7f5439e7fd2e4ef77b0af1a83a2f76dd439bd34f882af4b100d42a87ef56d45f51858286604051808473ffffffffffffffffffffffffffffffffffffffff1673ffffffffffffffffffffffffffffffffffffffff1681526020018360070b60070b81526020018261ffff1661ffff168152602001935050505060405180910390a1600560008673ffffffffffffffffffffffffffffffffffffffff1673ffffffffffffffffffffffffffffffffffffffff1681526020019081526020016000208490806001815401808255809150509060018203906000526020600020906008918282040191900660040290919261ffff16909190916101000a81548163ffffffff021916908363ffffffff16021790555050600660008673ffffffffffffffffffffffffffffffffffffffff1673ffffffffffffffffffffffffffffffffffffffff168152602001908152602001600020600060149054906101000a900460070b8303908060018154018082558091505090600182039060005260206000209060049182820401919006600802909192909190916101000a81548167ffffffffffffffff021916908360070b67ffffffffffffffff160217905550505b6001600260009054906101000a900461ffff160361ffff168461ffff161415610b5c57610b5b8561041d565b5b5050505050565b600260009054906101000a900461ffff1661ffff16815161ffff16141515610b8a57600080fd5b600360008373ffffffffffffffffffffffffffffffffffffffff1673ffffffffffffffffffffffffffffffffffffffff16815260200190815260200160002060000160009054906101000a900460ff161515610be557600080fd5b80600360008473ffffffffffffffffffffffffffffffffffffffff1673ffffffffffffffffffffffffffffffffffffffff1681526020019081526020016000206001019080519060200190610c3b929190610ea4565b507f2cf53422296246c4595775fa968cae860f24e03e3b8685b4518f307503b1a7118282604051808373ffffffffffffffffffffffffffffffffffffffff1673ffffffffffffffffffffffffffffffffffffffff16815260200180602001828103825283818151815260200191508051906020019060200280838360005b83811015610cd4578082015181840152602081019050610cb9565b50505050905001935050505060405180910390a15050565b6000809054906101000a900473ffffffffffffffffffffffffffffffffffffffff1673ffffffffffffffffffffffffffffffffffffffff163373ffffffffffffffffffffffffffffffffffffffff16141515610d4757600080fd5b80600060146101000a81548167ffffffffffffffff021916908360070b67ffffffffffffffff16021790555050565b60606001805480602002602001604051908101604052809291908181526020018280548015610dfa57602002820191906000526020600020905b8160009054906101000a900473ffffffffffffffffffffffffffffffffffffffff1673ffffffffffffffffffffffffffffffffffffffff1681526020019060010190808311610db0575b5050505050905090565b60008060149054906101000a900460070b905090565b828054828255906000526020600020908101928215610e93579160200282015b82811115610e925782518260006101000a81548173ffffffffffffffffffffffffffffffffffffffff021916908373ffffffffffffffffffffffffffffffffffffffff16021790555091602001919060010190610e3a565b5b509050610ea09190610f63565b5090565b82805482825590600052602060002090600301600490048101928215610f525791602002820160005b83821115610f1c57835183826101000a81548167ffffffffffffffff021916908360070b67ffffffffffffffff1602179055509260200192600801602081600701049283019260010302610ecd565b8015610f505782816101000a81549067ffffffffffffffff0219169055600801602081600701049283019260010302610f1c565b505b509050610f5f9190610fa6565b5090565b610fa391905b80821115610f9f57600081816101000a81549073ffffffffffffffffffffffffffffffffffffffff021916905550600101610f69565b5090565b90565b610fda91905b80821115610fd657600081816101000a81549067ffffffffffffffff021916905550600101610fac565b5090565b905600a165627a7a72305820662eed8904c72783451d589c935a239acc9e6bdf4255264118197d95ace07cc00029",
  "source": "pragma solidity ^0.4.23;\n\ncontract DR {\n\n    address owner;\n    int64 threshold;\n    address[]  authorizedBuildings;\n\n    uint16 intervals_n;\n    \n    struct building{\n        bool authorized;\n        int64[] powerConsumption;\n    }\n    \n    mapping (address => building) buildings;\n    \n    constructor() public{\n        owner = msg.sender;\n        intervals_n = 96;\n        threshold = 150000; //in watts*10^3\n    }\n\n    // -----------   DR MONITORING ----------------\n\n\n    // events\n \n    event powerC(\n        address _address,\n        int64[] powerConsumption\n    );\n    \n    event excess(\n        address _address,\n        int64 excessP,\n        uint16 _interval\n    );\n    \n\n    function getConsumption(address _addr) view public returns(int64[]){\n        return buildings[_addr].powerConsumption;\n    }\n    \n    function getAuthorizedBuildings() view public returns(address[]) {\n        return authorizedBuildings;\n    }\n    \n    function getOwner() view public returns(address){\n        return owner;\n    }\n    \n    function getAuthorizedCount() view public returns(uint){\n        return authorizedBuildings.length;\n    }\n    \n\n    function getThreshold() view public returns(int64){\n        return threshold;\n    }\n\n\n    function setThreshold(int64 _threshold) public{\n        require(msg.sender == owner); // exclusive to owner\n        threshold = _threshold;\n    }\n    \n\n    // sets the authorized buildings list\n    function setBuildings(address[] _authorizedBuildings) public {\n                \n        //require(msg.sender == owner);\n\n        authorizedBuildings = _authorizedBuildings; // completes the list of authorized buildings\n\n        for (uint i = 0 ; i < _authorizedBuildings.length; i++){ // creates the mapping\n            buildings[_authorizedBuildings[i]].authorized = true;\n        }\n    }\n\n    // sets the power consumption of a building\n    function setConsumption(address _addr, int64[] power) public {\n\n        //require(msg.sender==_addr); // exclusive to building\n        require(uint16(power.length)==intervals_n); // require correct lenght\n\n        require (buildings[_addr].authorized);\n\n        buildings[_addr].powerConsumption = power; // logic would swap the two entities of this line\n        \n        emit powerC(_addr,power);\n    }\n    \n\n    // monitors the power difference between prediction and live value\n    function monitor(address _addr, uint16 _interval, int64 _power) public {\n\n        int64 diff = _power - buildings[_addr].powerConsumption[_interval];\n        if (diff > threshold || diff < (-threshold)){\n            \n            int64 exc;\n\n            if (diff > 0){\n                exc = diff-threshold;\n            } else {\n                exc = -(diff+threshold);\n            }\n\n            emit excess(_addr, exc, _interval);\n\n            excesses_t[_addr].push(_interval); // adding excesses to database\n            excesses_v[_addr].push(diff-threshold);\n        } \n\n        if (_interval == intervals_n-1){\n            compute_billing(_addr);\n        }\n    }\n\n\n    \n    // ------------- DR BILLING ----------------\n\n    uint32 daily_reward;\n    uint32 penalty_rate;\n\n    // mappings containing the excess events\n    mapping (address => uint32[]) excesses_t;\n    mapping (address => int64[]) excesses_v;\n    // the event sent to communicate billing information\n    event billing(\n        address _address,\n        uint32[] excess_t_log,\n        int64[] excess_v_log,\n        int64 amount\n    );\n\n    // billing function; computes the cost and communicate to each building the price\n    // for simplification, billing is exactly proportional to the power exceeded from the threshold. Moreover, no account transaction is done\n    function compute_billing(address _addr) public {\n        int64 total = 0;\n        for (uint j = 0 ; j < excesses_v[_addr].length; j++){ \n            total = total + excesses_v[_addr][j];\n        }\n        total = -total/10; // indicative billing cost; \n        emit billing(_addr, excesses_t[_addr], excesses_v[_addr], total);\n    }\n}\n\n\n\n\ncontract Power_Consensus {\n\n    address owner;\n  \n    address[]  authorizedBuildings;\n    int64[] priceSignal;\n\n    struct building{\n        bool authorized;\n        int64[] powerConsumption;\n    }\n    \n    mapping (address => building) buildings;\n\n    //DR dr;\n\n\n    constructor() public {\n        owner = msg.sender;\n    }   \n    \n\n    // event triggered when an entry gets its power profile updated\n    event updated(\n        address id,\n        int64[] updated_consumption\n    );\n\n\n\n    // gets the consumption of the building\n    function getCons(address _addr) view public returns(int64[]){\n        return buildings[_addr].powerConsumption;\n    }\n    \n    \n    // gets the number of participating smart buildings\n    function getNum() view public returns(uint16){\n        return uint16(authorizedBuildings.length);\n    }\n    \n    // gets the price signal vector\n    function getPrice() view public returns(int64[]){\n        return priceSignal;\n    }\n    \n    // sets the price signal vector\n    function setPrice(int16[] _priceSignal) public {\n        priceSignal = _priceSignal;\n    }\n    \n    \n    // sets the authorized buildings list\n    function setBuildings(address[] _authorizedBuildings) public {\n\n        //require(msg.sender == owner);\n\n        authorizedBuildings = _authorizedBuildings; // completes the list of authorized buildings\n\n        for (uint i = 0 ; i < _authorizedBuildings.length; i++){ // creates the mapping\n            buildings[_authorizedBuildings[i]].authorized = true;\n        }\n    }\n    \n    // sets a new prediction for a building\n    function setCons(address _addr, int64[] updated_consumption) public{\n        require(msg.sender==_addr); // exclusive to building\n        require(buildings[_addr].authorized); // has to be authorized\n\n\n        buildings[_addr].powerConsumption = updated_consumption;\n\n        emit updated(_addr, updated_consumption);\n    }\n\n    /* ends the round\n    function endRound() public{\n        // should input things in DR\n    }\n    */\n}",
  "sourcePath": "/Users/David/Documents/MES/Projet/blockchain-dr-microgrid/truffle/contracts/Demand_Response.sol",
  "compiler": {
    "name": "solc",
    "version": "0.4.23+commit.124ca40d.Emscripten.clang"
  },
  "schemaVersion": "2.0.0",
  "updatedAt": "2018-07-26T11:33:52.780Z"
}