{
  "contractName": "DR_MB",
  "abi": [
    {
      "inputs": [],
      "payable": false,
      "stateMutability": "nonpayable",
      "type": "constructor"
    },
    {
      "anonymous": false,
      "inputs": [
        {
          "indexed": false,
          "name": "_address",
          "type": "address"
        },
        {
          "indexed": false,
          "name": "powerConsumption",
          "type": "int64[]"
        }
      ],
      "name": "powerC",
      "type": "event"
    },
    {
      "anonymous": false,
      "inputs": [
        {
          "indexed": false,
          "name": "_address",
          "type": "address"
        },
        {
          "indexed": false,
          "name": "excessP",
          "type": "int64"
        },
        {
          "indexed": false,
          "name": "_interval",
          "type": "uint16"
        }
      ],
      "name": "excess",
      "type": "event"
    },
    {
      "anonymous": false,
      "inputs": [
        {
          "indexed": false,
          "name": "_address",
          "type": "address"
        },
        {
          "indexed": false,
          "name": "excess_t_log",
          "type": "uint32[]"
        },
        {
          "indexed": false,
          "name": "excess_v_log",
          "type": "int64[]"
        },
        {
          "indexed": false,
          "name": "amount",
          "type": "int64"
        }
      ],
      "name": "billing",
      "type": "event"
    },
    {
      "constant": true,
      "inputs": [
        {
          "name": "_addr",
          "type": "address"
        }
      ],
      "name": "getConsumption",
      "outputs": [
        {
          "name": "",
          "type": "int64[]"
        }
      ],
      "payable": false,
      "stateMutability": "view",
      "type": "function"
    },
    {
      "constant": true,
      "inputs": [],
      "name": "getAuthorizedBuildings",
      "outputs": [
        {
          "name": "",
          "type": "address[]"
        }
      ],
      "payable": false,
      "stateMutability": "view",
      "type": "function"
    },
    {
      "constant": true,
      "inputs": [],
      "name": "getOwner",
      "outputs": [
        {
          "name": "",
          "type": "address"
        }
      ],
      "payable": false,
      "stateMutability": "view",
      "type": "function"
    },
    {
      "constant": true,
      "inputs": [],
      "name": "getAuthorizedCount",
      "outputs": [
        {
          "name": "",
          "type": "uint256"
        }
      ],
      "payable": false,
      "stateMutability": "view",
      "type": "function"
    },
    {
      "constant": true,
      "inputs": [],
      "name": "getThreshold",
      "outputs": [
        {
          "name": "",
          "type": "int64"
        }
      ],
      "payable": false,
      "stateMutability": "view",
      "type": "function"
    },
    {
      "constant": false,
      "inputs": [
        {
          "name": "_threshold",
          "type": "int64"
        }
      ],
      "name": "setThreshold",
      "outputs": [],
      "payable": false,
      "stateMutability": "nonpayable",
      "type": "function"
    },
    {
      "constant": false,
      "inputs": [
        {
          "name": "_authorizedBuildings",
          "type": "address[]"
        }
      ],
      "name": "setBuildings",
      "outputs": [],
      "payable": false,
      "stateMutability": "nonpayable",
      "type": "function"
    },
    {
      "constant": false,
      "inputs": [
        {
          "name": "_addr",
          "type": "address"
        },
        {
          "name": "power",
          "type": "int64[]"
        }
      ],
      "name": "setConsumption",
      "outputs": [],
      "payable": false,
      "stateMutability": "nonpayable",
      "type": "function"
    },
    {
      "constant": false,
      "inputs": [
        {
          "name": "_addr",
          "type": "address"
        },
        {
          "name": "_interval",
          "type": "uint16"
        },
        {
          "name": "_power",
          "type": "int64"
        }
      ],
      "name": "monitor",
      "outputs": [],
      "payable": false,
      "stateMutability": "nonpayable",
      "type": "function"
    },
    {
      "constant": false,
      "inputs": [],
      "name": "compute_billing",
      "outputs": [],
      "payable": false,
      "stateMutability": "nonpayable",
      "type": "function"
    }
  ],
  "bytecode": "0x608060405234801561001057600080fd5b50336000806101000a81548173ffffffffffffffffffffffffffffffffffffffff021916908373ffffffffffffffffffffffffffffffffffffffff1602179055506060600260006101000a81548161ffff021916908361ffff160217905550620249f0600060146101000a81548167ffffffffffffffff021916908360070b67ffffffffffffffff160217905550611119806100ad6000396000f3006080604052600436106100a4576000357c0100000000000000000000000000000000000000000000000000000000900463ffffffff16806358688c1c146100a957806369dbe3ae1461014157806370ac281c1461016c578063893d20e8146101d25780638e07867214610229578063a30dbfc514610287578063be3892131461030d578063d1b5adc31461033d578063e5f96fe914610354578063e75235b8146103c0575b600080fd5b3480156100b557600080fd5b506100ea600480360381019080803573ffffffffffffffffffffffffffffffffffffffff1690602001909291905050506103f1565b6040518080602001828103825283818151815260200191508051906020019060200280838360005b8381101561012d578082015181840152602081019050610112565b505050509050019250505060405180910390f35b34801561014d57600080fd5b506101566104b1565b6040518082815260200191505060405180910390f35b34801561017857600080fd5b506101d0600480360381019080803590602001908201803590602001908080602002602001604051908101604052809392919081815260200183836020028082843782019150505050505091929192905050506104be565b005b3480156101de57600080fd5b506101e7610568565b604051808273ffffffffffffffffffffffffffffffffffffffff1673ffffffffffffffffffffffffffffffffffffffff16815260200191505060405180910390f35b34801561023557600080fd5b50610285600480360381019080803573ffffffffffffffffffffffffffffffffffffffff169060200190929190803561ffff169060200190929190803560070b9060200190929190505050610591565b005b34801561029357600080fd5b5061030b600480360381019080803573ffffffffffffffffffffffffffffffffffffffff1690602001909291908035906020019082018035906020019080806020026020016040519081016040528093929190818152602001838360200280828437820191505050505050919291929050505061087b565b005b34801561031957600080fd5b5061033b600480360381019080803560070b9060200190929190505050610a04565b005b34801561034957600080fd5b50610352610a8e565b005b34801561036057600080fd5b50610369610e86565b6040518080602001828103825283818151815260200191508051906020019060200280838360005b838110156103ac578082015181840152602081019050610391565b505050509050019250505060405180910390f35b3480156103cc57600080fd5b506103d5610f14565b604051808260070b60070b815260200191505060405180910390f35b6060600360008373ffffffffffffffffffffffffffffffffffffffff1673ffffffffffffffffffffffffffffffffffffffff1681526020019081526020016000206001018054806020026020016040519081016040528092919081815260200182805480156104a557602002820191906000526020600020906000905b82829054906101000a900460070b60070b8152602001906008019060208260070104928301926001038202915080841161046e5790505b50505050509050919050565b6000600180549050905090565b600081600190805190602001906104d6929190610f2a565b50600090505b81518110156105645760016003600084848151811015156104f957fe5b9060200190602002015173ffffffffffffffffffffffffffffffffffffffff1673ffffffffffffffffffffffffffffffffffffffff16815260200190815260200160002060000160006101000a81548160ff02191690831515021790555080806001019150506104dc565b5050565b60008060009054906101000a900473ffffffffffffffffffffffffffffffffffffffff16905090565b600080600360008673ffffffffffffffffffffffffffffffffffffffff1673ffffffffffffffffffffffffffffffffffffffff1681526020019081526020016000206001018461ffff168154811015156105e757fe5b90600052602060002090600491828204019190066008029054906101000a900460070b83039150600060149054906101000a900460070b60070b8260070b13806106485750600060149054906101000a900460070b60000360070b8260070b125b156108485760008260070b131561067257600060149054906101000a900460070b8203905061068a565b600060149054906101000a900460070b820160000390505b7f5439e7fd2e4ef77b0af1a83a2f76dd439bd34f882af4b100d42a87ef56d45f51858286604051808473ffffffffffffffffffffffffffffffffffffffff1673ffffffffffffffffffffffffffffffffffffffff1681526020018360070b60070b81526020018261ffff1661ffff168152602001935050505060405180910390a1600560008673ffffffffffffffffffffffffffffffffffffffff1673ffffffffffffffffffffffffffffffffffffffff1681526020019081526020016000208490806001815401808255809150509060018203906000526020600020906008918282040191900660040290919261ffff16909190916101000a81548163ffffffff021916908363ffffffff16021790555050600660008673ffffffffffffffffffffffffffffffffffffffff1673ffffffffffffffffffffffffffffffffffffffff168152602001908152602001600020600060149054906101000a900460070b8303908060018154018082558091505090600182039060005260206000209060049182820401919006600802909192909190916101000a81548167ffffffffffffffff021916908360070b67ffffffffffffffff160217905550505b6001600260009054906101000a900461ffff160361ffff168461ffff16141561087457610873610a8e565b5b5050505050565b600260009054906101000a900461ffff1661ffff16815161ffff161415156108a257600080fd5b600360008373ffffffffffffffffffffffffffffffffffffffff1673ffffffffffffffffffffffffffffffffffffffff16815260200190815260200160002060000160009054906101000a900460ff1615156108fd57600080fd5b80600360008473ffffffffffffffffffffffffffffffffffffffff1673ffffffffffffffffffffffffffffffffffffffff1681526020019081526020016000206001019080519060200190610953929190610fb4565b507f2cf53422296246c4595775fa968cae860f24e03e3b8685b4518f307503b1a7118282604051808373ffffffffffffffffffffffffffffffffffffffff1673ffffffffffffffffffffffffffffffffffffffff16815260200180602001828103825283818151815260200191508051906020019060200280838360005b838110156109ec5780820151818401526020810190506109d1565b50505050905001935050505060405180910390a15050565b6000809054906101000a900473ffffffffffffffffffffffffffffffffffffffff1673ffffffffffffffffffffffffffffffffffffffff163373ffffffffffffffffffffffffffffffffffffffff16141515610a5f57600080fd5b80600060146101000a81548167ffffffffffffffff021916908360070b67ffffffffffffffff16021790555050565b60008060008092505b600180549050831015610e815760009150600090505b60066000600185815481101515610ac057fe5b9060005260206000200160009054906101000a900473ffffffffffffffffffffffffffffffffffffffff1673ffffffffffffffffffffffffffffffffffffffff1673ffffffffffffffffffffffffffffffffffffffff16815260200190815260200160002080549050811015610be95760066000600185815481101515610b4357fe5b9060005260206000200160009054906101000a900473ffffffffffffffffffffffffffffffffffffffff1673ffffffffffffffffffffffffffffffffffffffff1673ffffffffffffffffffffffffffffffffffffffff16815260200190815260200160002081815481101515610bb557fe5b90600052602060002090600491828204019190066008029054906101000a900460070b820191508080600101915050610aad565b600a8260000360070b811515610bfb57fe5b0591507f2f892b74127900b7d0c7ce2c8305b2e93c2c6386a426122601b7ef034bec7c60600184815481101515610c2e57fe5b9060005260206000200160009054906101000a900473ffffffffffffffffffffffffffffffffffffffff1660056000600187815481101515610c6c57fe5b9060005260206000200160009054906101000a900473ffffffffffffffffffffffffffffffffffffffff1673ffffffffffffffffffffffffffffffffffffffff1673ffffffffffffffffffffffffffffffffffffffff16815260200190815260200160002060066000600188815481101515610ce457fe5b9060005260206000200160009054906101000a900473ffffffffffffffffffffffffffffffffffffffff1673ffffffffffffffffffffffffffffffffffffffff1673ffffffffffffffffffffffffffffffffffffffff16815260200190815260200160002085604051808573ffffffffffffffffffffffffffffffffffffffff1673ffffffffffffffffffffffffffffffffffffffff16815260200180602001806020018460070b60070b81526020018381038352868181548152602001915080548015610dfd57602002820191906000526020600020906000905b82829054906101000a900463ffffffff1663ffffffff1681526020019060040190602082600301049283019260010382029150808411610dc05790505b50508381038252858181548152602001915080548015610e6257602002820191906000526020600020906000905b82829054906101000a900460070b60070b81526020019060080190602082600701049283019260010382029150808411610e2b5790505b5050965050505050505060405180910390a18280600101935050610a97565b505050565b60606001805480602002602001604051908101604052809291908181526020018280548015610f0a57602002820191906000526020600020905b8160009054906101000a900473ffffffffffffffffffffffffffffffffffffffff1673ffffffffffffffffffffffffffffffffffffffff1681526020019060010190808311610ec0575b5050505050905090565b60008060149054906101000a900460070b905090565b828054828255906000526020600020908101928215610fa3579160200282015b82811115610fa25782518260006101000a81548173ffffffffffffffffffffffffffffffffffffffff021916908373ffffffffffffffffffffffffffffffffffffffff16021790555091602001919060010190610f4a565b5b509050610fb09190611073565b5090565b828054828255906000526020600020906003016004900481019282156110625791602002820160005b8382111561102c57835183826101000a81548167ffffffffffffffff021916908360070b67ffffffffffffffff1602179055509260200192600801602081600701049283019260010302610fdd565b80156110605782816101000a81549067ffffffffffffffff021916905560080160208160070104928301926001030261102c565b505b50905061106f91906110b6565b5090565b6110b391905b808211156110af57600081816101000a81549073ffffffffffffffffffffffffffffffffffffffff021916905550600101611079565b5090565b90565b6110ea91905b808211156110e657600081816101000a81549067ffffffffffffffff0219169055506001016110bc565b5090565b905600a165627a7a72305820099a01831cee968af06d7c63ae04f93adefbf25ec87ad8682895304f36d419c20029",
  "source": "pragma solidity ^0.4.23;\n\ncontract DR_MB {\n    \n\n    address owner;\n    int64 threshold;\n    address[]  authorizedBuildings;\n\n    uint16 intervals_n;\n    \n    struct building{\n        bool authorized;\n        int64[] powerConsumption;\n    }\n    \n    mapping (address => building) buildings;\n    \n    constructor() public{\n        owner = msg.sender;\n        intervals_n = 96;\n        threshold = 150000; //in watts*10^3\n    }\n\n    // -----------   DR MONITORING ----------------\n\n\n    // events\n \n    event powerC(\n        address _address,\n        int64[] powerConsumption\n    );\n    \n    event excess(\n        address _address,\n        int64 excessP,\n        uint16 _interval\n    );\n    \n\n\n    function getConsumption(address _addr) view public returns(int64[]){\n        return buildings[_addr].powerConsumption;\n    }\n    \n    function getAuthorizedBuildings() view public returns(address[]) {\n        return authorizedBuildings;\n    }\n    \n    function getOwner() view public returns(address){\n        return owner;\n    }\n    \n    function getAuthorizedCount() view public returns(uint){\n        return authorizedBuildings.length;\n    }\n    \n\n    function getThreshold() view public returns(int64){\n        return threshold;\n    }\n\n\n    function setThreshold(int64 _threshold) public{\n        require(msg.sender == owner); // exclusive to owner\n        threshold = _threshold;\n    }\n    \n\n    // sets the authorized buildings list\n    function setBuildings(address[] _authorizedBuildings) public {\n                \n        //require(msg.sender == owner);\n\n        authorizedBuildings = _authorizedBuildings; // completes the list of authorized buildings\n\n        for (uint i = 0 ; i < _authorizedBuildings.length; i++){ // creates the mapping\n            buildings[_authorizedBuildings[i]].authorized = true;\n        }\n    }\n\n    // sets the power consumption of a building\n    function setConsumption(address _addr, int64[] power) public {\n\n        //require(msg.sender==_addr); // exclusive to building\n        require(uint16(power.length)==intervals_n); // require correct lenght\n\n        require (buildings[_addr].authorized);\n\n        buildings[_addr].powerConsumption = power; // logic would swap the two entities of this line\n        \n        emit powerC(_addr,power);\n    }\n    \n\n    // monitors the power difference between prediction and live value\n    function monitor(address _addr, uint16 _interval, int64 _power) public {\n\n        int64 diff = _power - buildings[_addr].powerConsumption[_interval];\n        if (diff > threshold || diff < (-threshold)){\n            \n            int64 exc;\n\n            if (diff > 0){\n                exc = diff-threshold;\n            } else {\n                exc = -(diff+threshold);\n            }\n\n            emit excess(_addr, exc, _interval);\n\n            excesses_t[_addr].push(_interval); // adding excesses to database\n            excesses_v[_addr].push(diff-threshold);\n        } \n\n        if (_interval == intervals_n-1){\n            compute_billing();\n        }\n    }\n\n\n    \n    // ------------- DR BILLING ----------------\n\n    //postDR pdr;\n    uint32 daily_reward;\n    uint32 penalty_rate;\n\n    // dicts containing the excess events\n    mapping (address => uint32[]) excesses_t;\n    mapping (address => int64[]) excesses_v;\n    // the event sent to communicate billing information\n    event billing(\n        address _address,\n        uint32[] excess_t_log,\n        int64[] excess_v_log,\n        int64 amount\n    );\n\n    // billing function; computes the cost and communicate to each building the price\n    // later phase : directly credit\n    function compute_billing() public {\n        for (uint i = 0 ; i < authorizedBuildings.length; i++){ \n            //excesses_v[_authorizedBuildings[i]]\n            int64 total = 0;\n            for (uint j = 0 ; j < excesses_v[authorizedBuildings[i]].length; j++){ \n                total = total + excesses_v[authorizedBuildings[i]][j];\n            }\n            total = -total/10;\n            emit billing(authorizedBuildings[i], excesses_t[authorizedBuildings[i]], excesses_v[authorizedBuildings[i]], total);\n        }\n    }\n}\n\n\n\n\ncontract Power_Consensus {\n\n    address owner;\n  \n    address[]  authorizedBuildings;\n    int64[] priceSignal;\n\n    struct building{\n        bool authorized;\n        int64[] powerConsumption;\n    }\n    \n    mapping (address => building) buildings;\n\n    //DR dr;\n\n\n    constructor() public {\n        owner = msg.sender;\n    }   \n    \n\n    // event triggered when an entry gets its power profile updated\n    event updated(\n        address id,\n        int64[] updated_consumption\n    );\n\n\n\n    // gets the consumption of the building\n    function getCons(address _addr) view public returns(int64[]){\n        return buildings[_addr].powerConsumption;\n    }\n    \n    \n    // gets the number of participating smart buildings\n    function getNum() view public returns(uint16){\n        return uint16(authorizedBuildings.length);\n    }\n    \n    // gets the price signal vector\n    function getPrice() view public returns(int64[]){\n        return priceSignal;\n    }\n    \n    // sets the price signal vector\n    function setPrice(int16[] _priceSignal) public {\n        priceSignal = _priceSignal;\n    }\n    \n    \n    // sets the authorized buildings list\n    function setBuildings(address[] _authorizedBuildings) public {\n\n        require(msg.sender == owner);\n\n        authorizedBuildings = _authorizedBuildings; // completes the list of authorized buildings\n\n        for (uint i = 0 ; i < _authorizedBuildings.length; i++){ // creates the mapping\n            buildings[_authorizedBuildings[i]].authorized = true;\n        }\n    }\n    \n    // sets a new prediction for a building\n    function setCons(address _addr, int64[] updated_consumption) public{\n        require(msg.sender==_addr); // exclusive to building\n        require(buildings[_addr].authorized); // has to be authorized\n\n\n        buildings[_addr].powerConsumption = updated_consumption;\n\n        emit updated(_addr, updated_consumption);\n    }\n\n    /* ends the round\n    function endRound() public{\n        // should input things in DR\n    }\n    */\n\n}",
  "sourcePath": "/Users/David/Documents/MES/Projet/blockchain-dr-microgrid/truffle/contracts/Demand_Response.sol",
  "compiler": {
    "name": "solc",
    "version": "0.4.23+commit.124ca40d.Emscripten.clang"
  },
  "schemaVersion": "2.0.0",
  "updatedAt": "2018-06-10T14:54:48.601Z"
}