{
  "contractName": "postDR",
  "abi": [
    {
      "inputs": [
        {
          "name": "_daily_reward",
          "type": "int16"
        },
        {
          "name": "_penalty_rate",
          "type": "int16"
        },
        {
          "name": "_DR_contract",
          "type": "address"
        }
      ],
      "payable": false,
      "stateMutability": "nonpayable",
      "type": "constructor"
    },
    {
      "constant": false,
      "inputs": [
        {
          "name": "_addr",
          "type": "address"
        },
        {
          "name": "delta",
          "type": "int16"
        }
      ],
      "name": "calculate",
      "outputs": [],
      "payable": false,
      "stateMutability": "nonpayable",
      "type": "function"
    },
    {
      "constant": false,
      "inputs": [
        {
          "name": "_addr",
          "type": "address"
        },
        {
          "name": "delta",
          "type": "int16"
        },
        {
          "name": "amount",
          "type": "int16"
        }
      ],
      "name": "notify",
      "outputs": [],
      "payable": false,
      "stateMutability": "nonpayable",
      "type": "function"
    },
    {
      "constant": false,
      "inputs": [
        {
          "name": "_addr",
          "type": "address"
        },
        {
          "name": "delta",
          "type": "int16"
        },
        {
          "name": "amount",
          "type": "int16"
        }
      ],
      "name": "bill",
      "outputs": [],
      "payable": false,
      "stateMutability": "nonpayable",
      "type": "function"
    }
  ],
  "bytecode": "0x608060405234801561001057600080fd5b50604051606080610317833981018060405281019080805190602001909291908051906020019092919080519060200190929190505050806000806101000a81548173ffffffffffffffffffffffffffffffffffffffff021916908373ffffffffffffffffffffffffffffffffffffffff16021790555082600060146101000a81548161ffff021916908360010b61ffff16021790555081600060166101000a81548161ffff021916908360010b61ffff16021790555050505061023e806100d96000396000f300608060405260043610610057576000357c0100000000000000000000000000000000000000000000000000000000900463ffffffff1680632873cec91461005c57806351482d44146100b9578063b77a99d714610109575b600080fd5b34801561006857600080fd5b506100b7600480360381019080803573ffffffffffffffffffffffffffffffffffffffff169060200190929190803560010b9060200190929190803560010b9060200190929190505050610166565b005b3480156100c557600080fd5b50610107600480360381019080803573ffffffffffffffffffffffffffffffffffffffff169060200190929190803560010b906020019092919050505061016b565b005b34801561011557600080fd5b50610164600480360381019080803573ffffffffffffffffffffffffffffffffffffffff169060200190929190803560010b9060200190929190803560010b906020019092919050505061020d565b005b505050565b6000809054906101000a900473ffffffffffffffffffffffffffffffffffffffff1673ffffffffffffffffffffffffffffffffffffffff163373ffffffffffffffffffffffffffffffffffffffff161415156101c357fe5b60008160010b1415610208576101e98282600060149054906101000a900460010b610166565b6102038282600060149054906101000a900460010b61020d565b610209565b5b5050565b5050505600a165627a7a72305820ec36b2575b9807bc92d33e273fb39edccc421730d7fa01394482056429fc40200029",
  "source": "pragma solidity ^0.4.23;\n\n\n// Carry on the rewarding/penalizing process\ncontract postDR {\n    /* This contract also acts like a bank account, paying and billing customers \n    depending on the outcome of the DR phase.\n    */\n    \n\n    address DR_contract;\n    int16 daily_reward;\n    int16 penalty_rate;\n    \n    constructor(int16 _daily_reward, int16 _penalty_rate, address _DR_contract) public{\n        DR_contract = _DR_contract;\n        daily_reward = _daily_reward;\n        penalty_rate = _penalty_rate;\n    }\n\n    function calculate(address _addr, int16 delta) public{\n        assert(msg.sender == DR_contract);\n        if(delta == 0){\n            notify(_addr, delta, daily_reward);\n            bill(_addr, delta, daily_reward);\n        }\n        else {\n            \n        }\n    }\n    \n    // this function could also notify back the DR smart-contract\n    function notify(address _addr, int16 delta, int16 amount) public{\n        //calls a function of DR contract\n        // has to pass through DR contract to notify client ?\n        \n    }\n    \n    function bill(address _addr, int16 delta, int16 amount) public{\n        \n    }\n    \n\n}",
  "sourcePath": "/Users/David/Documents/MES/Projet/blockchain-dr-microgrid/truffle/contracts/postDR.sol",
  "compiler": {
    "name": "solc",
    "version": "0.4.23+commit.124ca40d.Emscripten.clang"
  },
  "schemaVersion": "2.0.0",
  "updatedAt": "2018-06-09T16:27:41.190Z"
}