{
  "contractName": "Power_Consensus",
  "abi": [
    {
      "inputs": [],
      "payable": false,
      "stateMutability": "nonpayable",
      "type": "constructor"
    },
    {
      "anonymous": false,
      "inputs": [
        {
          "indexed": false,
          "name": "id",
          "type": "address"
        },
        {
          "indexed": false,
          "name": "updated_consumption",
          "type": "int64[]"
        }
      ],
      "name": "updated",
      "type": "event"
    },
    {
      "constant": true,
      "inputs": [
        {
          "name": "_addr",
          "type": "address"
        }
      ],
      "name": "getCons",
      "outputs": [
        {
          "name": "",
          "type": "int64[]"
        }
      ],
      "payable": false,
      "stateMutability": "view",
      "type": "function"
    },
    {
      "constant": true,
      "inputs": [],
      "name": "getNum",
      "outputs": [
        {
          "name": "",
          "type": "uint16"
        }
      ],
      "payable": false,
      "stateMutability": "view",
      "type": "function"
    },
    {
      "constant": true,
      "inputs": [],
      "name": "getPrice",
      "outputs": [
        {
          "name": "",
          "type": "int64[]"
        }
      ],
      "payable": false,
      "stateMutability": "view",
      "type": "function"
    },
    {
      "constant": false,
      "inputs": [
        {
          "name": "_priceSignal",
          "type": "int16[]"
        }
      ],
      "name": "setPrice",
      "outputs": [],
      "payable": false,
      "stateMutability": "nonpayable",
      "type": "function"
    },
    {
      "constant": false,
      "inputs": [
        {
          "name": "_authorizedBuildings",
          "type": "address[]"
        }
      ],
      "name": "setBuildings",
      "outputs": [],
      "payable": false,
      "stateMutability": "nonpayable",
      "type": "function"
    },
    {
      "constant": false,
      "inputs": [
        {
          "name": "_addr",
          "type": "address"
        },
        {
          "name": "updated_consumption",
          "type": "int64[]"
        }
      ],
      "name": "setCons",
      "outputs": [],
      "payable": false,
      "stateMutability": "nonpayable",
      "type": "function"
    }
  ],
  "bytecode": "0x608060405234801561001057600080fd5b50336000806101000a81548173ffffffffffffffffffffffffffffffffffffffff021916908373ffffffffffffffffffffffffffffffffffffffff160217905550610959806100606000396000f300608060405260043610610078576000357c0100000000000000000000000000000000000000000000000000000000900463ffffffff1680633a906a861461007d5780635246fb5f146100e357806367e0badb1461016957806370ac281c1461019c57806393a9dcfe1461020257806398d5fdca1461029a575b600080fd5b34801561008957600080fd5b506100e160048036038101908080359060200190820180359060200190808060200260200160405190810160405280939291908181526020018383602002808284378201915050505050509192919290505050610306565b005b3480156100ef57600080fd5b50610167600480360381019080803573ffffffffffffffffffffffffffffffffffffffff16906020019092919080359060200190820180359060200190808060200260200160405190810160405280939291908181526020018383602002808284378201915050505050509192919290505050610320565b005b34801561017557600080fd5b5061017e6104bc565b604051808261ffff1661ffff16815260200191505060405180910390f35b3480156101a857600080fd5b50610200600480360381019080803590602001908201803590602001908080602002602001604051908101604052809392919081815260200183836020028082843782019150505050505091929192905050506104c9565b005b34801561020e57600080fd5b50610243600480360381019080803573ffffffffffffffffffffffffffffffffffffffff169060200190929190505050610573565b6040518080602001828103825283818151815260200191508051906020019060200280838360005b8381101561028657808201518184015260208101905061026b565b505050509050019250505060405180910390f35b3480156102a657600080fd5b506102af610633565b6040518080602001828103825283818151815260200191508051906020019060200280838360005b838110156102f25780820151818401526020810190506102d7565b505050509050019250505060405180910390f35b806002908051906020019061031c9291906106b1565b5050565b8173ffffffffffffffffffffffffffffffffffffffff163373ffffffffffffffffffffffffffffffffffffffff1614151561035a57600080fd5b600360008373ffffffffffffffffffffffffffffffffffffffff1673ffffffffffffffffffffffffffffffffffffffff16815260200190815260200160002060000160009054906101000a900460ff1615156103b557600080fd5b80600360008473ffffffffffffffffffffffffffffffffffffffff1673ffffffffffffffffffffffffffffffffffffffff168152602001908152602001600020600101908051906020019061040b92919061076a565b507f17a6a8be19638cde2da572902afb5f09ff74fec295a79e0a4dd48ba1c456b6d18282604051808373ffffffffffffffffffffffffffffffffffffffff1673ffffffffffffffffffffffffffffffffffffffff16815260200180602001828103825283818151815260200191508051906020019060200280838360005b838110156104a4578082015181840152602081019050610489565b50505050905001935050505060405180910390a15050565b6000600180549050905090565b600081600190805190602001906104e1929190610829565b50600090505b815181101561056f57600160036000848481518110151561050457fe5b9060200190602002015173ffffffffffffffffffffffffffffffffffffffff1673ffffffffffffffffffffffffffffffffffffffff16815260200190815260200160002060000160006101000a81548160ff02191690831515021790555080806001019150506104e7565b5050565b6060600360008373ffffffffffffffffffffffffffffffffffffffff1673ffffffffffffffffffffffffffffffffffffffff16815260200190815260200160002060010180548060200260200160405190810160405280929190818152602001828054801561062757602002820191906000526020600020906000905b82829054906101000a900460070b60070b815260200190600801906020826007010492830192600103820291508084116105f05790505b50505050509050919050565b606060028054806020026020016040519081016040528092919081815260200182805480156106a757602002820191906000526020600020906000905b82829054906101000a900460070b60070b815260200190600801906020826007010492830192600103820291508084116106705790505b5050505050905090565b828054828255906000526020600020906003016004900481019282156107595791602002820160005b8382111561072357835183826101000a81548167ffffffffffffffff021916908360010b61ffff16021790555092602001926008016020816007010492830192600103026106da565b80156107575782816101000a81549067ffffffffffffffff0219169055600801602081600701049283019260010302610723565b505b50905061076691906108b3565b5090565b828054828255906000526020600020906003016004900481019282156108185791602002820160005b838211156107e257835183826101000a81548167ffffffffffffffff021916908360070b67ffffffffffffffff1602179055509260200192600801602081600701049283019260010302610793565b80156108165782816101000a81549067ffffffffffffffff02191690556008016020816007010492830192600103026107e2565b505b50905061082591906108b3565b5090565b8280548282559060005260206000209081019282156108a2579160200282015b828111156108a15782518260006101000a81548173ffffffffffffffffffffffffffffffffffffffff021916908373ffffffffffffffffffffffffffffffffffffffff16021790555091602001919060010190610849565b5b5090506108af91906108ea565b5090565b6108e791905b808211156108e357600081816101000a81549067ffffffffffffffff0219169055506001016108b9565b5090565b90565b61092a91905b8082111561092657600081816101000a81549073ffffffffffffffffffffffffffffffffffffffff0219169055506001016108f0565b5090565b905600a165627a7a723058206f6c7854f8c9978bd1abbe0edbf6364bdd4b72cad6f4de6bd4cb4a6a7240fc980029",
  "source": "pragma solidity ^0.4.23;\n\ncontract DR {\n\n    address owner;\n    int64 threshold;\n    address[]  authorizedBuildings;\n\n    uint16 intervals_n;\n    \n    struct building{\n        bool authorized;\n        int64[] powerConsumption;\n    }\n    \n    mapping (address => building) buildings;\n    \n    constructor() public{\n        owner = msg.sender;\n        intervals_n = 96;\n        threshold = 150000; //in watts*10^3\n    }\n\n    // -----------   DR MONITORING ----------------\n\n\n    // events\n \n    event powerC(\n        address _address,\n        int64[] powerConsumption\n    );\n    \n    event excess(\n        address _address,\n        int64 excessP,\n        uint16 _interval\n    );\n    \n\n    function getConsumption(address _addr) view public returns(int64[]){\n        return buildings[_addr].powerConsumption;\n    }\n    \n    function getAuthorizedBuildings() view public returns(address[]) {\n        return authorizedBuildings;\n    }\n    \n    function getOwner() view public returns(address){\n        return owner;\n    }\n    \n    function getAuthorizedCount() view public returns(uint){\n        return authorizedBuildings.length;\n    }\n    \n\n    function getThreshold() view public returns(int64){\n        return threshold;\n    }\n\n\n    function setThreshold(int64 _threshold) public{\n        require(msg.sender == owner); // exclusive to owner\n        threshold = _threshold;\n    }\n    \n\n    // sets the authorized buildings list\n    function setBuildings(address[] _authorizedBuildings) public {\n                \n        //require(msg.sender == owner);\n\n        authorizedBuildings = _authorizedBuildings; // completes the list of authorized buildings\n\n        for (uint i = 0 ; i < _authorizedBuildings.length; i++){ // creates the mapping\n            buildings[_authorizedBuildings[i]].authorized = true;\n        }\n    }\n\n    // sets the power consumption of a building\n    function setConsumption(address _addr, int64[] power) public {\n\n        //require(msg.sender==_addr); // exclusive to building\n        require(uint16(power.length)==intervals_n); // require correct lenght\n\n        require (buildings[_addr].authorized);\n\n        buildings[_addr].powerConsumption = power; // logic would swap the two entities of this line\n        \n        emit powerC(_addr,power);\n    }\n    \n\n    // monitors the power difference between prediction and live value\n    function monitor(address _addr, uint16 _interval, int64 _power) public {\n\n        int64 diff = _power - buildings[_addr].powerConsumption[_interval];\n        if (diff > threshold || diff < (-threshold)){\n            \n            int64 exc;\n\n            if (diff > 0){\n                exc = diff-threshold;\n            } else {\n                exc = -(diff+threshold);\n            }\n\n            emit excess(_addr, exc, _interval);\n\n            excesses_t[_addr].push(_interval); // adding excesses to database\n            excesses_v[_addr].push(diff-threshold);\n        } \n\n        if (_interval == intervals_n-1){\n            compute_billing(_addr);\n        }\n    }\n\n\n    \n    // ------------- DR BILLING ----------------\n\n    uint32 daily_reward;\n    uint32 penalty_rate;\n\n    // mappings containing the excess events\n    mapping (address => uint32[]) excesses_t;\n    mapping (address => int64[]) excesses_v;\n    // the event sent to communicate billing information\n    event billing(\n        address _address,\n        uint32[] excess_t_log,\n        int64[] excess_v_log,\n        int64 amount\n    );\n\n    // billing function; computes the cost and communicate to each building the price\n    // for simplification, billing is exactly proportional to the power exceeded from the threshold. Moreover, no account transaction is done\n    function compute_billing(address _addr) public {\n        int64 total = 0;\n        for (uint j = 0 ; j < excesses_v[_addr].length; j++){ \n            total = total + excesses_v[_addr][j];\n        }\n        total = -total/10; // indicative billing cost; \n        emit billing(_addr, excesses_t[_addr], excesses_v[_addr], total);\n    }\n}\n\n\n\n\ncontract Power_Consensus {\n\n    address owner;\n  \n    address[]  authorizedBuildings;\n    int64[] priceSignal;\n\n    struct building{\n        bool authorized;\n        int64[] powerConsumption;\n    }\n    \n    mapping (address => building) buildings;\n\n    //DR dr;\n\n\n    constructor() public {\n        owner = msg.sender;\n    }   \n    \n\n    // event triggered when an entry gets its power profile updated\n    event updated(\n        address id,\n        int64[] updated_consumption\n    );\n\n\n\n    // gets the consumption of the building\n    function getCons(address _addr) view public returns(int64[]){\n        return buildings[_addr].powerConsumption;\n    }\n    \n    \n    // gets the number of participating smart buildings\n    function getNum() view public returns(uint16){\n        return uint16(authorizedBuildings.length);\n    }\n    \n    // gets the price signal vector\n    function getPrice() view public returns(int64[]){\n        return priceSignal;\n    }\n    \n    // sets the price signal vector\n    function setPrice(int16[] _priceSignal) public {\n        priceSignal = _priceSignal;\n    }\n    \n    \n    // sets the authorized buildings list\n    function setBuildings(address[] _authorizedBuildings) public {\n\n        //require(msg.sender == owner);\n\n        authorizedBuildings = _authorizedBuildings; // completes the list of authorized buildings\n\n        for (uint i = 0 ; i < _authorizedBuildings.length; i++){ // creates the mapping\n            buildings[_authorizedBuildings[i]].authorized = true;\n        }\n    }\n    \n    // sets a new prediction for a building\n    function setCons(address _addr, int64[] updated_consumption) public{\n        require(msg.sender==_addr); // exclusive to building\n        require(buildings[_addr].authorized); // has to be authorized\n\n\n        buildings[_addr].powerConsumption = updated_consumption;\n\n        emit updated(_addr, updated_consumption);\n    }\n\n    /* ends the round\n    function endRound() public{\n        // should input things in DR\n    }\n    */\n}",
  "sourcePath": "/Users/David/Documents/MES/Projet/blockchain-dr-microgrid/truffle/contracts/Demand_Response.sol",
  "compiler": {
    "name": "solc",
    "version": "0.4.23+commit.124ca40d.Emscripten.clang"
  },
  "schemaVersion": "2.0.0",
  "updatedAt": "2018-07-26T11:33:52.774Z"
}